8=FIX.4.4|9=70|35=A|34=1|49=EXECUTOR|52=20240506-21:08:02.179|56=CLIENT1|98=0|108=30|10=093|